:1000000027C040C073C13EC03DC026C13BC03AC0FE
:1000100039C038C037C036C035C05AC2AAC1000086
:10002000000036000000000037000000000038002B
:10003000020202020202020202020102040810206D
:1000400020041008010200000400000000008F04DA
:1000500011241FBECFE5D1E0DEBFCDBF20E0A0E67A
:10006000B0E001C01D92A63BB207E1F710E0C8E284
:10007000D0E003C02197FE017BD6C732D107D1F76C
:1000800069D27CC6BDCF823081F018F4813051F046
:100090000895833019F0843009F008958CB58F7D70
:1000A0008CBD08958AB58F7702C08AB58F7D8ABDD1
:1000B00008951F93CF93DF93E5E4F0E09491EBE391
:1000C000F0E0D491E1E3F0E0C491CC23C9F0182F23
:1000D000992311F0892FD7DFEC2FF0E0EE0FFF1FEF
:1000E000E65DFF4FA591B4919FB7F894111104C03C
:1000F0008C91D095D82302C0EC91DE2BDC939FBF6E
:10010000DF91CF911F910895CF93DF9390E0FC0191
:10011000E65CFF4F2491FC01E05DFF4F8491882352
:1001200061F190E0880F991FFC01EC5DFF4FC591D4
:10013000D491FC01E65DFF4FA591B491611109C016
:100140009FB7F8948881209582238883EC912E2391
:100150000BC0623061F49FB7F8948881322F3095DC
:1001600083238883EC912E2B2C939FBF06C08FB7DF
:10017000F894E8812E2B28838FBFDF91CF910895CB
:100180003FB7F8948091B2009091B300A091B40071
:10019000B091B50022B708B601FE05C02F3F19F097
:1001A0000196A11DB11D3FBFBA2FA92F982F8827F7
:1001B000820F911DA11DB11DBC01CD0143E0660F51
:1001C000771F881F991F4A95D1F70895E0918F00F6
:1001D000F0919000309709F0099408950895909156
:1001E00085009F5F9F7120918600921749F0E92F4B
:1001F000F0E0E05AFF4F80839093850081E00895FE
:1002000080E00895CF93DF939091A40080919100B6
:1002100091110DC081111DC080919200811119C0F2
:10022000C9E9D0E08991DBDF813099F40EC08111FA
:1002300004C080919200882321F080E0DF91CF916B
:10024000CECF80E0DF91CF91CACF80E0C43AD8070B
:1002500049F7DF91CF9108951F920F920FB60F9239
:1002600011242F933F938F939F93AF93BF938091CC
:10027000AE009091AF00A091B000B091B10030916C
:10028000AD0026E0230F2D3720F40296A11DB11DED
:1002900005C029E8230F0396A11DB11D2093AD00D1
:1002A0008093AE009093AF00A093B000B093B100E4
:1002B0008091B2009091B300A091B400B091B500CC
:1002C0000196A11DB11D8093B2009093B300A0933D
:1002D000B400B093B500BF91AF919F918F913F91C2
:1002E0002F910F900FBE0F901F9018951F920F9295
:1002F0000FB60F9211242F933F934F935F936F93F9
:100300007F938F939F93AF93BF93EF93FF93B09B94
:100310001FC0B29B1DC082E18A95F1F700C0B09B5F
:1003200017C0B29B15C01092830080918200882371
:1003300071F080918400882341F080918400E091E5
:100340008B00F0918C0090E0099510928200759AD4
:10035000FF91EF91BF91AF919F918F917F916F919D
:100360005F914F913F912F910F900FBE0F901F9073
:1003700018951F920F920FB60F9211242F933F934F
:100380004F935F936F937F938F939F93AF93BF939D
:10039000EF93FF93809180009091810082309105CE
:1003A00009F455C028F40097D1F00197A1F17FC05E
:1003B0008430910509F454C010F1059709F077C015
:1003C000809187008F5F8F71809387008091870075
:1003D0008FB1809184008F5F809384004CC08FB177
:1003E000882309F452C08FB190E0959587952091AC
:1003F000890030E08217930709F055C046C08FB1DD
:10040000882349F088EA8DB980E78EB9109286007A
:10041000109285004CC090918500809186009817BD
:1004200009F441C0809186008F5F8F7180938600B0
:10043000E0918600F0E0E05AFF4F80818FB982E0C2
:1004400090E09093810080938000B89A2EC083E062
:1004500090E09093810080938000B8981FB813C0FB
:1004600085E090E09093810080938000B8981DC053
:1004700081E08093820084E090E0909381008093FB
:1004800080001FB8B89A8EE711C0789BF1CF81E049
:1004900090E09093810080938000E0918D00F09136
:1004A0008E000995EECF88EA8DB980E78EB9FF916D
:1004B000EF91BF91AF919F918F917F916F915F91DC
:1004C0004F913F912F910F900FBE0F901F90189555
:1004D0001F920F920FB60F9211242F933F934F93B9
:1004E0005F936F937F938F939F93AF93BF93EF939C
:1004F000FF9381E080938300B898B29B02C0B09BC9
:10050000FCCFB09910C088EF8DB98091820088230C
:1005100051F080918400E0918B00F0918C0090E08C
:1005200009951092820080EF8EB91092810010928E
:100530008000FF91EF91BF91AF919F918F917F913B
:100540006F915F914F913F912F910F900FBE0F9040
:100550001F90189578948AB582608ABD8AB58160AB
:100560008ABD83B7826083BF83B7816083BF89B749
:10057000826089BF80B7826080BF80B7816080BFA2
:10058000329A319A3098379A8CB580648CBD80E06D
:1005900090DD61E081E0B8DD1092910087E2809308
:1005A000930026EE30E030938E0020938D002EEEE7
:1005B00030E030938C0020938B00109288001092D2
:1005C000870010928600109285001092840010928D
:1005D0008A00809389008FEF8FB987B3856087BBCE
:1005E000C29AC09AB89888EA8DB980EF8EB98BB755
:1005F00080628BBF8AB780628ABFA89A82E091E04E
:100600009093900080938F0060E084E07DDD60E057
:1006100089E07ADD2FB7F8948091AE009091AF0019
:10062000A091B000B091B1002FBF9093AC00809327
:10063000AB009C012C593F4F3093AA002093A90096
:1006400088519C4F909395008093940010929B004A
:1006500023EA622E20E0722E30E0232E30E0332E8B
:1006600048E5442E42E0542EC1E0DFE012E30AE008
:100670008FB7F8944091AE005091AF006091B000F8
:100680007091B1008FBF5093AC004093AB0080914C
:10069000A9009091AA009A01281B390B2F3F3F47D0
:1006A00008F0B5C08C599F4F9093AA008093A90081
:1006B00083E087B9369A3699FECF64B185B170E090
:1006C000782B072E000C880B990B33D223E333E3EE
:1006D00043E550E4E2D220E030EC4FE754E48ED121
:1006E00020E030E04CED52E4D8D220E030E040E2AF
:1006F00051E484D16B017C0120E030E040E251E420
:10070000CCD24B015C0120E030E0A901C2D220E054
:1007100030E040E05FE387FD04C0C501B40106D1CD
:1007200003C0C501B40101D1D1D1B62EA72E60936B
:10073000A7007093A8008091A60081111AC020E044
:1007400030E048E351E4C701B601A3D287FD2BC0D6
:100750008091A500811103C00093A50003C08150C2
:100760008093A5008091A50081111FC0C093A600B1
:100770001CC020E030E048E251E4C701B6013AD1A4
:1007800018168CF08091A500811103C01093A5006C
:1007900003C081508093A5008091A500811105C000
:1007A0001092A60002C01092A500C093A400C093AE
:1007B0009900D0939A0080919B008F5F80939B005B
:1007C000A0929C00B0929D008091A50080939E0015
:1007D0008091A60080939F0080919700909198004F
:1007E0009093A0008093A100809196008093A20036
:1007F0001092A300E9E9F0E081919091A30089278C
:100800008093A3006E167F06B9F71092A400809122
:100810009400909195002091AB003091AC00281B82
:10082000390B2F3F3F4708F047C088519C4F9093AA
:1008300095008093940080919600813069F018F0C3
:100840008230B1F039C08091A600882309F434C009
:10085000C093960081E061C08091A60081112CC0F8
:10086000F2E0F0939600509298004092970024C0D6
:1008700080919700909198000197909398008093B1
:100880009700892B09F442C0E8E4F0E08491EEE39C
:10089000F0E0F490E4E3F0E0E490EE20B9F18111AF
:1008A000F2DBEE2DF0E0EE0FFF1FE25EFF4FA591B1
:1008B000B4918C91F82251F163DC6B017C018AE0E8
:1008C000882E912CA12CB12C5BDCDC01CB018C1986
:1008D0009D09AE09BF09883E9340A105B105A0F36B
:1008E000F1E08F1A9108A108B10828EEC20E23E0AA
:1008F000D21EE11CF11C81149104A104B10421F762
:100900002114310409F4B4CE7BDBAECE10929800F2
:10091000109297001092960080E0CBDBCDCFE1E9FA
:10092000F0E010821182128208955058BB27AA2746
:100930000ED075C166D130F06BD120F031F49F3FFD
:1009400011F41EF45BC10EF4E095E7FB51C1E92FF1
:1009500077D180F3BA17620773078407950718F0F9
:1009600071F49EF58FC10EF4E0950B2EBA2FA02DD9
:100970000B01B90190010C01CA01A0011124FF274C
:10098000591B99F0593F50F4503E68F11A16F04047
:10099000A22F232F342F4427585FF3CF4695379546
:1009A0002795A795F0405395C9F77EF41F16BA0B0B
:1009B000620B730B840BBAF09150A1F0FF0FBB1FB9
:1009C000661F771F881FC2F70EC0BA0F621F731F02
:1009D000841F48F4879577956795B795F7959E3F5F
:1009E00008F0B3CF9395880F08F09927EE0F9795ED
:1009F00087950895D9D008F481E008950CD00FC1EF
:100A000007D140F0FED030F021F45F3F19F0F0C084
:100A1000511139C1F3C014D198F39923C9F3552367
:100A2000B1F3951B550BBB27AA27621773078407E1
:100A300038F09F5F5F4F220F331F441FAA1FA9F397
:100A400033D00E2E3AF0E0E830D091505040E69589
:100A5000001CCAF729D0FE2F27D0660F771F881FEA
:100A6000BB1F261737074807AB07B0E809F0BB0BD9
:100A7000802DBF01FF2793585F4F2AF09E3F5105FD
:100A800068F0B6C000C15F3FECF3983EDCF386959A
:100A900077956795B795F7959F5FC9F7880F911D73
:100AA0009695879597F90895E1E0660F771F881F5F
:100AB000BB1F621773078407BA0720F0621B730B12
:100AC000840BBA0BEE1F88F7E095089504D0689464
:100AD000B111D9C00895BCD088F09F5790F0B92FBC
:100AE0009927B751A0F0D1F0660F771F881F991F83
:100AF0001AF0BA95C9F712C0B13081F0C3D0B1E095
:100B00000895C0C0672F782F8827B85F39F0B93FA4
:100B1000CCF3869577956795B395D9F73EF4909584
:100B20008095709561957F4F8F4F9F4F0895E89402
:100B300009C097FB3EF490958095709561957F4F25
:100B40008F4F9F4F9923A9F0F92F96E9BB279395D3
:100B5000F695879577956795B795F111F8CFFAF4E3
:100B6000BB0F11F460FF1BC06F5F7F4F8F4F9F4F14
:100B700016C0882311F096E911C0772321F09EE872
:100B8000872F762F05C0662371F096E8862F70E0D8
:100B900060E02AF09A95660F771F881FDAF7880FB2
:100BA0009695879597F90895990F0008550FAA0B08
:100BB000E0E8FEEF16161706E807F907C0F0121670
:100BC0001306E407F50798F0621B730B840B950B73
:100BD00039F40A2661F0232B242B252B21F40895C8
:100BE0000A2609F4A140A6958FEF811D811D089565
:100BF00097F99F6780E870E060E008959FEF80ECD0
:100C0000089500240A941616170618060906089572
:100C100000240A9412161306140605060895092ED8
:100C20000394000C11F4882352F0BB0F40F4BF2B47
:100C300011F460FF04C06F5F7F4F8F4F9F4F089587
:100C400057FD9058440F551F59F05F3F71F047957D
:100C5000880F97FB991F61F09F3F79F08795089562
:100C6000121613061406551FF2CF4695F1DF08C081
:100C7000161617061806991FF1CF8695710561059E
:100C800008940895E894BB2766277727CB0197F946
:100C900008958ADF08F48FEF08950AD0C0CFB1DF3E
:100CA00028F0B6DF18F0952309F0A2CFA7CFEBCF3D
:100CB000C7DFA8F39923D9F35523C9F3950F50E063
:100CC000551FAA27EE27FF27BB2700240894679506
:100CD00020F4E20FF31FB41F0A1E220F331F441F1C
:100CE000AA1F6695A9F7779530F4F30FB41F0A1E73
:100CF000121E08F46395330F441FAA1F221F769516
:100D000099F7879520F4B40F0A1E121E631F440F33
:100D1000AA1F221F331F8695A9F7862F712D602DDC
:100D200011249F5750408AF0E1F088234AF0EE0FDB
:100D3000FF1FBB1F661F771F881F91505040A9F7E8
:100D40009E3F510570F054CF9ECF5F3FECF3983E2D
:100D5000DCF3869577956795B795F795E7959F5F4F
:100D6000C1F7FE2B880F911D9695879597F90895E9
:100D7000EE0FFF1F0590F491E02D0994F894FFCF3A
:00000001FF
